{
  "contractName": "DAO",
  "abi": [
    {
      "inputs": [
        {
          "internalType": "uint256",
          "name": "_contributionEnd",
          "type": "uint256"
        }
      ],
      "payable": false,
      "stateMutability": "nonpayable",
      "type": "constructor"
    },
    {
      "anonymous": false,
      "inputs": [
        {
          "indexed": false,
          "internalType": "address",
          "name": "_addr",
          "type": "address"
        },
        {
          "indexed": false,
          "internalType": "uint256",
          "name": "_value",
          "type": "uint256"
        }
      ],
      "name": "Contributed",
      "type": "event"
    },
    {
      "payable": true,
      "stateMutability": "payable",
      "type": "fallback"
    },
    {
      "constant": true,
      "inputs": [],
      "name": "admin",
      "outputs": [
        {
          "internalType": "address",
          "name": "",
          "type": "address"
        }
      ],
      "payable": false,
      "stateMutability": "view",
      "type": "function"
    },
    {
      "constant": true,
      "inputs": [],
      "name": "availableFunds",
      "outputs": [
        {
          "internalType": "uint256",
          "name": "",
          "type": "uint256"
        }
      ],
      "payable": false,
      "stateMutability": "view",
      "type": "function"
    },
    {
      "constant": true,
      "inputs": [],
      "name": "contributionEnd",
      "outputs": [
        {
          "internalType": "uint256",
          "name": "",
          "type": "uint256"
        }
      ],
      "payable": false,
      "stateMutability": "view",
      "type": "function"
    },
    {
      "constant": true,
      "inputs": [
        {
          "internalType": "address",
          "name": "",
          "type": "address"
        }
      ],
      "name": "investors",
      "outputs": [
        {
          "internalType": "bool",
          "name": "",
          "type": "bool"
        }
      ],
      "payable": false,
      "stateMutability": "view",
      "type": "function"
    },
    {
      "constant": true,
      "inputs": [],
      "name": "nextProposalId",
      "outputs": [
        {
          "internalType": "uint256",
          "name": "",
          "type": "uint256"
        }
      ],
      "payable": false,
      "stateMutability": "view",
      "type": "function"
    },
    {
      "constant": true,
      "inputs": [
        {
          "internalType": "uint256",
          "name": "",
          "type": "uint256"
        }
      ],
      "name": "proposals",
      "outputs": [
        {
          "internalType": "uint256",
          "name": "id",
          "type": "uint256"
        },
        {
          "internalType": "string",
          "name": "name",
          "type": "string"
        },
        {
          "internalType": "uint256",
          "name": "amount",
          "type": "uint256"
        },
        {
          "internalType": "address payable",
          "name": "recipient",
          "type": "address"
        },
        {
          "internalType": "uint256",
          "name": "votes",
          "type": "uint256"
        },
        {
          "internalType": "uint256",
          "name": "end",
          "type": "uint256"
        },
        {
          "internalType": "bool",
          "name": "executed",
          "type": "bool"
        }
      ],
      "payable": false,
      "stateMutability": "view",
      "type": "function"
    },
    {
      "constant": true,
      "inputs": [],
      "name": "quorum",
      "outputs": [
        {
          "internalType": "uint256",
          "name": "",
          "type": "uint256"
        }
      ],
      "payable": false,
      "stateMutability": "view",
      "type": "function"
    },
    {
      "constant": true,
      "inputs": [
        {
          "internalType": "address",
          "name": "",
          "type": "address"
        }
      ],
      "name": "shares",
      "outputs": [
        {
          "internalType": "uint256",
          "name": "",
          "type": "uint256"
        }
      ],
      "payable": false,
      "stateMutability": "view",
      "type": "function"
    },
    {
      "constant": true,
      "inputs": [],
      "name": "totalShares",
      "outputs": [
        {
          "internalType": "uint256",
          "name": "",
          "type": "uint256"
        }
      ],
      "payable": false,
      "stateMutability": "view",
      "type": "function"
    },
    {
      "constant": true,
      "inputs": [],
      "name": "voteTime",
      "outputs": [
        {
          "internalType": "uint256",
          "name": "",
          "type": "uint256"
        }
      ],
      "payable": false,
      "stateMutability": "view",
      "type": "function"
    },
    {
      "constant": true,
      "inputs": [
        {
          "internalType": "address",
          "name": "",
          "type": "address"
        },
        {
          "internalType": "uint256",
          "name": "",
          "type": "uint256"
        }
      ],
      "name": "votes",
      "outputs": [
        {
          "internalType": "bool",
          "name": "",
          "type": "bool"
        }
      ],
      "payable": false,
      "stateMutability": "view",
      "type": "function"
    },
    {
      "constant": false,
      "inputs": [],
      "name": "contribute",
      "outputs": [],
      "payable": true,
      "stateMutability": "payable",
      "type": "function"
    },
    {
      "constant": false,
      "inputs": [
        {
          "internalType": "uint256",
          "name": "amount",
          "type": "uint256"
        }
      ],
      "name": "redeemShares",
      "outputs": [],
      "payable": false,
      "stateMutability": "nonpayable",
      "type": "function"
    },
    {
      "constant": false,
      "inputs": [
        {
          "internalType": "address",
          "name": "to",
          "type": "address"
        },
        {
          "internalType": "uint256",
          "name": "amount",
          "type": "uint256"
        }
      ],
      "name": "transferShares",
      "outputs": [],
      "payable": false,
      "stateMutability": "nonpayable",
      "type": "function"
    },
    {
      "constant": false,
      "inputs": [
        {
          "internalType": "string",
          "name": "name",
          "type": "string"
        },
        {
          "internalType": "uint256",
          "name": "amount",
          "type": "uint256"
        },
        {
          "internalType": "address payable",
          "name": "recipient",
          "type": "address"
        }
      ],
      "name": "createProposal",
      "outputs": [],
      "payable": false,
      "stateMutability": "nonpayable",
      "type": "function"
    },
    {
      "constant": false,
      "inputs": [
        {
          "internalType": "uint256",
          "name": "proposalId",
          "type": "uint256"
        }
      ],
      "name": "vote",
      "outputs": [],
      "payable": false,
      "stateMutability": "nonpayable",
      "type": "function"
    },
    {
      "constant": false,
      "inputs": [
        {
          "internalType": "uint256",
          "name": "proposalId",
          "type": "uint256"
        }
      ],
      "name": "executeProposal",
      "outputs": [],
      "payable": false,
      "stateMutability": "nonpayable",
      "type": "function"
    },
    {
      "constant": false,
      "inputs": [
        {
          "internalType": "uint256",
          "name": "amount",
          "type": "uint256"
        },
        {
          "internalType": "address payable",
          "name": "to",
          "type": "address"
        }
      ],
      "name": "withrawEth",
      "outputs": [],
      "payable": false,
      "stateMutability": "nonpayable",
      "type": "function"
    }
  ],
  "bytecode": "0x608060405234801561001057600080fd5b50604051611a92380380611a928339818101604052602081101561003357600080fd5b810190808051906020019092919050505080420160008190555050611a358061005d6000396000f3fe6080604052600436106101095760003560e01c80636f7bc9be11610095578063bcf93dd611610064578063bcf93dd6146105c8578063ce7c2ac2146105f3578063d151b51614610658578063d7bb99ba14610683578063f851a4401461068d57610109565b80636f7bc9be146104565780638fcb4e5b146104bf5780639f2524ee1461051a578063adba98041461058d57610109565b80631fe6be63116100dc5780631fe6be63146102ca5780632ab09d14146103255780633a98ef391461035057806346fcff4c1461037b5780636ac1e01f146103a657610109565b80630121b93f1461011b578063013cf08b146101565780630d61b519146102645780631703a0181461029f575b34600260008282540192505081905550005b34801561012757600080fd5b506101546004803603602081101561013e57600080fd5b81019080803590602001909291905050506106e4565b005b34801561016257600080fd5b5061018f6004803603602081101561017957600080fd5b8101908080359060200190929190505050610a5e565b60405180888152602001806020018781526020018673ffffffffffffffffffffffffffffffffffffffff1673ffffffffffffffffffffffffffffffffffffffff16815260200185815260200184815260200183151515158152602001828103825288818151815260200191508051906020019080838360005b83811015610223578082015181840152602081019050610208565b50505050905090810190601f1680156102505780820380516001836020036101000a031916815260200191505b509850505050505050505060405180910390f35b34801561027057600080fd5b5061029d6004803603602081101561028757600080fd5b8101908080359060200190929190505050610b65565b005b3480156102ab57600080fd5b506102b4610de6565b6040518082815260200191505060405180910390f35b3480156102d657600080fd5b50610323600480360360408110156102ed57600080fd5b8101908080359060200190929190803573ffffffffffffffffffffffffffffffffffffffff169060200190929190505050610dec565b005b34801561033157600080fd5b5061033a610ebd565b6040518082815260200191505060405180910390f35b34801561035c57600080fd5b50610365610ec3565b6040518082815260200191505060405180910390f35b34801561038757600080fd5b50610390610ec9565b6040518082815260200191505060405180910390f35b3480156103b257600080fd5b50610454600480360360608110156103c957600080fd5b81019080803590602001906401000000008111156103e657600080fd5b8201836020820111156103f857600080fd5b8035906020019184600183028401116401000000008311171561041a57600080fd5b909192939192939080359060200190929190803573ffffffffffffffffffffffffffffffffffffffff169060200190929190505050610ecf565b005b34801561046257600080fd5b506104a56004803603602081101561047957600080fd5b81019080803573ffffffffffffffffffffffffffffffffffffffff169060200190929190505050611173565b604051808215151515815260200191505060405180910390f35b3480156104cb57600080fd5b50610518600480360360408110156104e257600080fd5b81019080803573ffffffffffffffffffffffffffffffffffffffff16906020019092919080359060200190929190505050611193565b005b34801561052657600080fd5b506105736004803603604081101561053d57600080fd5b81019080803573ffffffffffffffffffffffffffffffffffffffff1690602001909291908035906020019092919050505061133e565b604051808215151515815260200191505060405180910390f35b34801561059957600080fd5b506105c6600480360360208110156105b057600080fd5b810190808035906020019092919050505061136d565b005b3480156105d457600080fd5b506105dd6115ea565b6040518082815260200191505060405180910390f35b3480156105ff57600080fd5b506106426004803603602081101561061657600080fd5b81019080803573ffffffffffffffffffffffffffffffffffffffff1690602001909291905050506115f0565b6040518082815260200191505060405180910390f35b34801561066457600080fd5b5061066d611608565b6040518082815260200191505060405180910390f35b61068b61160e565b005b34801561069957600080fd5b506106a261179a565b604051808273ffffffffffffffffffffffffffffffffffffffff1673ffffffffffffffffffffffffffffffffffffffff16815260200191505060405180910390f35b60011515600760003373ffffffffffffffffffffffffffffffffffffffff1673ffffffffffffffffffffffffffffffffffffffff16815260200190815260200160002060009054906101000a900460ff1615151461078d576040517f08c379a000000000000000000000000000000000000000000000000000000000815260040180806020018281038252602181526020018061198e6021913960400191505060405180910390fd5b610795611893565b80600960008481526020019081526020016000206000820151816000015560208201518160010190805190602001906107cf9291906118e8565b506040820151816002015560608201518160030160006101000a81548173ffffffffffffffffffffffffffffffffffffffff021916908373ffffffffffffffffffffffffffffffffffffffff1602179055506080820151816004015560a0820151816005015560c08201518160060160006101000a81548160ff02191690831515021790555090505060001515600a60003373ffffffffffffffffffffffffffffffffffffffff1673ffffffffffffffffffffffffffffffffffffffff168152602001908152602001600020600084815260200190815260200160002060009054906101000a900460ff1615151461092f576040517f08c379a000000000000000000000000000000000000000000000000000000000815260040180806020018281038252600c8152602001807f616c7265617920766f746564000000000000000000000000000000000000000081525060200191505060405180910390fd5b8060a0015142106109a8576040517f08c379a00000000000000000000000000000000000000000000000000000000081526004018080602001828103825260168152602001807f70726f706f73616c20616c726561647920656e6465640000000000000000000081525060200191505060405180910390fd5b6001600a60003373ffffffffffffffffffffffffffffffffffffffff1673ffffffffffffffffffffffffffffffffffffffff168152602001908152602001600020600084815260200190815260200160002060006101000a81548160ff021916908315150217905550600860003373ffffffffffffffffffffffffffffffffffffffff1673ffffffffffffffffffffffffffffffffffffffff168152602001908152602001600020548160800181815250505050565b6009602052806000526040600020600091509050806000015490806001018054600181600116156101000203166002900480601f016020809104026020016040519081016040528092919081815260200182805460018160011615610100020316600290048015610b105780601f10610ae557610100808354040283529160200191610b10565b820191906000526020600020905b815481529060010190602001808311610af357829003601f168201915b5050505050908060020154908060030160009054906101000a900473ffffffffffffffffffffffffffffffffffffffff16908060040154908060050154908060060160009054906101000a900460ff16905087565b600660009054906101000a900473ffffffffffffffffffffffffffffffffffffffff1673ffffffffffffffffffffffffffffffffffffffff163373ffffffffffffffffffffffffffffffffffffffff1614610c28576040517f08c379a000000000000000000000000000000000000000000000000000000000815260040180806020018281038252601d8152602001807f6f6e6c792061646d696e2063616e206d616b6520746869732063616c6c00000081525060200191505060405180910390fd5b60006009600083815260200190815260200160002090508060050154421015610cb9576040517f08c379a00000000000000000000000000000000000000000000000000000000081526004018080602001828103825260198152602001807f63616e6e6f742065786563757465206265666f726520656e640000000000000081525060200191505060405180910390fd5b600015158160060160009054906101000a900460ff16151514610d44576040517f08c379a000000000000000000000000000000000000000000000000000000000815260040180806020018281038252601d8152602001807f63616e6e6f742065786563757465206d6f7265207468616e206f6e636500000081525060200191505060405180910390fd5b6005546064600154836004015481610d5857fe5b040211610db0576040517f08c379a00000000000000000000000000000000000000000000000000000000081526004018080602001828103825260318152602001806119d06031913960400191505060405180910390fd5b610de281600201548260030160009054906101000a900473ffffffffffffffffffffffffffffffffffffffff166117c0565b5050565b60055481565b600660009054906101000a900473ffffffffffffffffffffffffffffffffffffffff1673ffffffffffffffffffffffffffffffffffffffff163373ffffffffffffffffffffffffffffffffffffffff1614610eaf576040517f08c379a000000000000000000000000000000000000000000000000000000000815260040180806020018281038252601d8152602001807f6f6e6c792061646d696e2063616e206d616b6520746869732063616c6c00000081525060200191505060405180910390fd5b610eb982826117c0565b5050565b60035481565b60015481565b60025481565b60011515600760003373ffffffffffffffffffffffffffffffffffffffff1673ffffffffffffffffffffffffffffffffffffffff16815260200190815260200160002060009054906101000a900460ff16151514610f78576040517f08c379a000000000000000000000000000000000000000000000000000000000815260040180806020018281038252602181526020018061198e6021913960400191505060405180910390fd5b816002541015610ff0576040517f08c379a00000000000000000000000000000000000000000000000000000000081526004018080602001828103825260108152602001807f4e6f7420656e6f7567682066756e64730000000000000000000000000000000081525060200191505060405180910390fd5b6040518060e00160405280600354815260200185858080601f016020809104026020016040519081016040528093929190818152602001838380828437600081840152601f19601f8201169050808301925050505050505081526020018381526020018273ffffffffffffffffffffffffffffffffffffffff1681526020016000815260200160045442018152602001600015158152506009600060035481526020019081526020016000206000820151816000015560208201518160010190805190602001906110c29291906118e8565b506040820151816002015560608201518160030160006101000a81548173ffffffffffffffffffffffffffffffffffffffff021916908373ffffffffffffffffffffffffffffffffffffffff1602179055506080820151816004015560a0820151816005015560c08201518160060160006101000a81548160ff0219169083151502179055509050508160026000828254039250508190555060036000815480929190600101919050555050505050565b60076020528060005260406000206000915054906101000a900460ff1681565b80600860003373ffffffffffffffffffffffffffffffffffffffff1673ffffffffffffffffffffffffffffffffffffffff168152602001908152602001600020541015611248576040517f08c379a00000000000000000000000000000000000000000000000000000000081526004018080602001828103825260138152602001807f496e73756666696369656e74207368617265730000000000000000000000000081525060200191505060405180910390fd5b80600860003373ffffffffffffffffffffffffffffffffffffffff1673ffffffffffffffffffffffffffffffffffffffff1681526020019081526020016000206000828254039250508190555080600860008473ffffffffffffffffffffffffffffffffffffffff1673ffffffffffffffffffffffffffffffffffffffff168152602001908152602001600020600082825401925050819055506001600760008473ffffffffffffffffffffffffffffffffffffffff1673ffffffffffffffffffffffffffffffffffffffff16815260200190815260200160002060006101000a81548160ff0219169083151502179055505050565b600a6020528160005260406000206020528060005260406000206000915091509054906101000a900460ff1681565b60011515600760003373ffffffffffffffffffffffffffffffffffffffff1673ffffffffffffffffffffffffffffffffffffffff16815260200190815260200160002060009054906101000a900460ff16151514611416576040517f08c379a000000000000000000000000000000000000000000000000000000000815260040180806020018281038252602181526020018061198e6021913960400191505060405180910390fd5b80600860003373ffffffffffffffffffffffffffffffffffffffff1673ffffffffffffffffffffffffffffffffffffffff1681526020019081526020016000205410156114cb576040517f08c379a00000000000000000000000000000000000000000000000000000000081526004018080602001828103825260138152602001807f496e73756666696369656e74207368617265730000000000000000000000000081525060200191505060405180910390fd5b806002541015611543576040517f08c379a000000000000000000000000000000000000000000000000000000000815260040180806020018281038252601b8152602001807f496e73756666696369656e7420617661696c61626c6546756e6473000000000081525060200191505060405180910390fd5b80600860003373ffffffffffffffffffffffffffffffffffffffff1673ffffffffffffffffffffffffffffffffffffffff16815260200190815260200160002060008282540392505081905550806002600082825403925050819055503373ffffffffffffffffffffffffffffffffffffffff166108fc829081150290604051600060405180830381858888f193505050501580156115e6573d6000803e3d6000fd5b5050565b60045481565b60086020528060005260406000206000915090505481565b60005481565b6000544210611668576040517f08c379a00000000000000000000000000000000000000000000000000000000081526004018080602001828103825260218152602001806119af6021913960400191505060405180910390fd5b6001600760003373ffffffffffffffffffffffffffffffffffffffff1673ffffffffffffffffffffffffffffffffffffffff16815260200190815260200160002060006101000a81548160ff02191690831515021790555034600860003373ffffffffffffffffffffffffffffffffffffffff1673ffffffffffffffffffffffffffffffffffffffff1681526020019081526020016000206000828254019250508190555034600160008282540192505081905550346002600082825401925050819055507f62722348256371b5147820d6cad90c40fd2da1ccee18c3ed52c0bca5a61dbbab3334604051808373ffffffffffffffffffffffffffffffffffffffff1673ffffffffffffffffffffffffffffffffffffffff1681526020018281526020019250505060405180910390a1565b600660009054906101000a900473ffffffffffffffffffffffffffffffffffffffff1681565b816002541015611838576040517f08c379a00000000000000000000000000000000000000000000000000000000081526004018080602001828103825260118152602001807f696e73756666696369656e742066756e6400000000000000000000000000000081525060200191505060405180910390fd5b816002600082825403925050819055508073ffffffffffffffffffffffffffffffffffffffff166108fc839081150290604051600060405180830381858888f1935050505015801561188e573d6000803e3d6000fd5b505050565b6040518060e00160405280600081526020016060815260200160008152602001600073ffffffffffffffffffffffffffffffffffffffff16815260200160008152602001600081526020016000151581525090565b828054600181600116156101000203166002900490600052602060002090601f016020900481019282601f1061192957805160ff1916838001178555611957565b82800160010185558215611957579182015b8281111561195657825182559160200191906001019061193b565b5b5090506119649190611968565b5090565b61198a91905b8082111561198657600081600090555060010161196e565b5090565b9056fe6f6e6c7920696e766573746f72732063616e206d616b6520746869732063616c6c436f6e747269627574696f6e20706572696f6420616c726561647920656e64656463616e6e6f74206578656375746520612070726f706f73616c207769746820766f7465732062656c6f772071756f72756da265627a7a723158200dc7316f63064ea03a8e7bdc75a6a0ea67c63abb9478224d2d37358a3e328ae864736f6c63430005100032",
  "source": "pragma solidity ^0.5.0;\r\n\r\ncontract DAO {\r\n    \r\n    uint public contributionEnd;\r\n    uint public totalShares;\r\n    uint public availableFunds;\r\n    uint public nextProposalId;\r\n    uint public voteTime;\r\n    uint public quorum;\r\n    address public admin;\r\n    \r\n    struct Proposal {\r\n        uint id;\r\n        string name;\r\n        uint amount;\r\n        address payable recipient;\r\n        uint votes;\r\n        uint end;\r\n        bool executed;\r\n    }\r\n    \r\n    mapping(address => bool) public investors;\r\n    mapping(address => uint) public shares;\r\n    mapping(uint => Proposal) public proposals;\r\n    mapping(address => mapping(uint => bool)) public votes;\r\n    \r\n    event Contributed(address _addr, uint _value);\r\n    \r\n    constructor(uint _contributionEnd) public {\r\n        contributionEnd = now + _contributionEnd;\r\n    }\r\n    \r\n    modifier onlyInvestors() {\r\n        require(investors[msg.sender] == true, 'only investors can make this call');\r\n        _;\r\n    }\r\n    \r\n    modifier onlyAdmin() {\r\n        require(msg.sender == admin, 'only admin can make this call');\r\n        _;\r\n    }\r\n    \r\n    function contribute() payable external {\r\n        require(now < contributionEnd, 'Contribution period already ended');\r\n        investors[msg.sender] = true;\r\n        shares[msg.sender] += msg.value;\r\n        totalShares += msg.value;\r\n        availableFunds += msg.value;\r\n        emit Contributed(msg.sender, msg.value);\r\n    }\r\n    \r\n    function redeemShares(uint amount) external onlyInvestors {\r\n        require(shares[msg.sender] >= amount, 'Insufficient shares');\r\n        require(availableFunds >= amount, 'Insufficient availableFunds');\r\n        shares[msg.sender] -= amount;\r\n        availableFunds -=amount;\r\n        msg.sender.transfer(amount);\r\n    }\r\n    \r\n    function transferShares(address to, uint amount) external {\r\n        require(shares[msg.sender] >= amount, 'Insufficient shares');\r\n        shares[msg.sender] -= amount;\r\n        shares[to] += amount;\r\n        investors[to] = true;\r\n    }\r\n    \r\n    function createProposal(string calldata name, uint amount, address payable recipient) external onlyInvestors {\r\n        require(availableFunds >= amount, 'Not enough funds');\r\n        proposals[nextProposalId] = Proposal(nextProposalId, name, amount, recipient, 0, now + voteTime, false);\r\n        availableFunds -= amount;\r\n        nextProposalId++;\r\n    }\r\n    \r\n    function vote(uint proposalId) external onlyInvestors {\r\n        Proposal memory proposal;\r\n        proposals[proposalId] = proposal;\r\n        require(votes[msg.sender][proposalId] == false, 'alreay voted');\r\n        require(now < proposal.end, 'proposal already ended');\r\n        votes[msg.sender][proposalId] = true;\r\n        proposal.votes = shares[msg.sender];\r\n    }\r\n    \r\n    function executeProposal(uint proposalId) external onlyAdmin {\r\n        Proposal storage proposal = proposals[proposalId];\r\n        require(now >= proposal.end, 'cannot execute before end');\r\n        require(proposal.executed == false, 'cannot execute more than once');\r\n        require((proposal.votes / totalShares) * 100 > quorum, 'cannot execute a proposal with votes below quorum');\r\n        _transfer(proposal.amount, proposal.recipient);\r\n    }\r\n    \r\n    function withrawEth(uint amount, address payable to) external onlyAdmin {\r\n        _transfer(amount, to);\r\n    }\r\n    \r\n    function _transfer(uint amount, address payable to) internal {\r\n        require(availableFunds >= amount, 'insufficient fund');\r\n        availableFunds -= amount;\r\n        to.transfer(amount);\r\n    }\r\n    \r\n    function() payable external {\r\n        availableFunds += msg.value;\r\n    }\r\n}\r\n\r\n\r\n\r\n\r\n\r\n\r\n\r\n",
  "sourcePath": "C:\\Users\\LENOVO\\Desktop\\THE GRIND\\Blockchain Dev\\gitrepo\\DAO\\contracts\\DAO.sol",
  "compiler": {
    "name": "solc",
    "version": "0.5.16+commit.9c3226ce.Emscripten.clang"
  },
  "schemaVersion": "3.1.0",
  "updatedAt": "2020-06-17T18:51:05.842Z",
  "devdoc": {
    "methods": {}
  },
  "userdoc": {
    "methods": {}
  }
}